{
  "contractName": "Pet",
  "abi": [
    {
      "constant": false,
      "inputs": [
        {
          "internalType": "string",
          "name": "_petHash",
          "type": "string"
        }
      ],
      "name": "addPetHash",
      "outputs": [],
      "payable": false,
      "stateMutability": "nonpayable",
      "type": "function"
    },
    {
      "constant": true,
      "inputs": [],
      "name": "getHashes",
      "outputs": [
        {
          "internalType": "string[]",
          "name": "",
          "type": "string[]"
        }
      ],
      "payable": false,
      "stateMutability": "view",
      "type": "function"
    }
  ],
  "bytecode": "0x608060405234801561001057600080fd5b50610508806100206000396000f3fe608060405234801561001057600080fd5b50600436106100365760003560e01c80634245d48e1461003b57806368e6a31b14610059575b600080fd5b610043610075565b60405161005091906103a2565b60405180910390f35b610073600480360361006e919081019061029f565b61015e565b005b60606000805480602002602001604051908101604052809291908181526020016000905b82821015610155578382906000526020600020018054600181600116156101000203166002900480601f0160208091040260200160405190810160405280929190818152602001828054600181600116156101000203166002900480156101415780601f1061011657610100808354040283529160200191610141565b820191906000526020600020905b81548152906001019060200180831161012457829003601f168201915b505050505081526020019060010190610099565b50505050905090565b606081905060008190806001815401808255809150509060018203906000526020600020016000909192909190915090805190602001906101a09291906101a6565b50505050565b828054600181600116156101000203166002900490600052602060002090601f016020900481019282601f106101e757805160ff1916838001178555610215565b82800160010185558215610215579182015b828111156102145782518255916020019190600101906101f9565b5b5090506102229190610226565b5090565b61024891905b8082111561024457600081600090555060010161022c565b5090565b90565b600082601f83011261025c57600080fd5b813561026f61026a826103f1565b6103c4565b9150808252602083016020830185838301111561028b57600080fd5b610296838284610472565b50505092915050565b6000602082840312156102b157600080fd5b600082013567ffffffffffffffff8111156102cb57600080fd5b6102d78482850161024b565b91505092915050565b60006102ec8383610369565b905092915050565b60006102ff8261042d565b6103098185610450565b93508360208202850161031b8561041d565b8060005b85811015610357578484038952815161033885826102e0565b945061034383610443565b925060208a0199505060018101905061031f565b50829750879550505050505092915050565b600061037482610438565b61037e8185610461565b935061038e818560208601610481565b610397816104b4565b840191505092915050565b600060208201905081810360008301526103bc81846102f4565b905092915050565b6000604051905081810181811067ffffffffffffffff821117156103e757600080fd5b8060405250919050565b600067ffffffffffffffff82111561040857600080fd5b601f19601f8301169050602081019050919050565b6000819050602082019050919050565b600081519050919050565b600081519050919050565b6000602082019050919050565b600082825260208201905092915050565b600082825260208201905092915050565b82818337600083830152505050565b60005b8381101561049f578082015181840152602081019050610484565b838111156104ae576000848401525b50505050565b6000601f19601f830116905091905056fea365627a7a723158209b833c670128cd1f7bc47c5cc5966b952406f29e675758306e1dcca68f3cad746c6578706572696d656e74616cf564736f6c634300050c0040",
  "source": "pragma solidity ^0.5.0;\npragma experimental ABIEncoderV2;\n\ncontract Pet {\n    string[] petHashes;\n\n    function addPetHash(string memory _petHash) public {\n        string memory toPost = _petHash;\n        petHashes.push(toPost);\n    }\n\n      function getHashes() public view returns(string[] memory) {\n      return petHashes;\n  }\n}",
  "sourcePath": "/Users/ryanpedersen/cat-roulette/src/contracts/Pet.sol",
  "compiler": {
    "name": "solc",
    "version": "0.5.12+commit.7709ece9.Emscripten.clang"
  },
  "schemaVersion": "3.0.19",
  "updatedAt": "2019-12-20T20:07:29.319Z",
  "networkType": "ethereum",
  "devdoc": {
    "methods": {}
  },
  "userdoc": {
    "methods": {}
  }
}